{
  "contractName": "HelloWorld",
  "abi": [
    {
      "inputs": [
        {
          "internalType": "string",
          "name": "_message",
          "type": "string"
        }
      ],
      "stateMutability": "nonpayable",
      "type": "constructor"
    },
    {
      "inputs": [],
      "name": "message",
      "outputs": [
        {
          "internalType": "string",
          "name": "",
          "type": "string"
        }
      ],
      "stateMutability": "view",
      "type": "function"
    },
    {
      "inputs": [],
      "name": "owner",
      "outputs": [
        {
          "internalType": "address",
          "name": "",
          "type": "address"
        }
      ],
      "stateMutability": "view",
      "type": "function"
    },
    {
      "inputs": [],
      "name": "hello",
      "outputs": [
        {
          "internalType": "string",
          "name": "",
          "type": "string"
        }
      ],
      "stateMutability": "view",
      "type": "function"
    },
    {
      "inputs": [
        {
          "internalType": "string",
          "name": "_message",
          "type": "string"
        }
      ],
      "name": "setMessage",
      "outputs": [],
      "stateMutability": "payable",
      "type": "function"
    }
  ],
  "bytecode": "0x60806040523480156200001157600080fd5b50604051620009d9380380620009d98339818101604052810190620000379190620001ba565b80600090805190602001906200004f92919062000098565b5033600160006101000a81548173ffffffffffffffffffffffffffffffffffffffff021916908373ffffffffffffffffffffffffffffffffffffffff160217905550506200036f565b828054620000a69062000294565b90600052602060002090601f016020900481019282620000ca576000855562000116565b82601f10620000e557805160ff191683800117855562000116565b8280016001018555821562000116579182015b8281111562000115578251825591602001919060010190620000f8565b5b50905062000125919062000129565b5090565b5b80821115620001445760008160009055506001016200012a565b5090565b60006200015f620001598462000228565b620001ff565b9050828152602081018484840111156200017857600080fd5b620001858482856200025e565b509392505050565b600082601f8301126200019f57600080fd5b8151620001b184826020860162000148565b91505092915050565b600060208284031215620001cd57600080fd5b600082015167ffffffffffffffff811115620001e857600080fd5b620001f6848285016200018d565b91505092915050565b60006200020b6200021e565b9050620002198282620002ca565b919050565b6000604051905090565b600067ffffffffffffffff8211156200024657620002456200032f565b5b62000251826200035e565b9050602081019050919050565b60005b838110156200027e57808201518184015260208101905062000261565b838111156200028e576000848401525b50505050565b60006002820490506001821680620002ad57607f821691505b60208210811415620002c457620002c362000300565b5b50919050565b620002d5826200035e565b810181811067ffffffffffffffff82111715620002f757620002f66200032f565b5b80604052505050565b7f4e487b7100000000000000000000000000000000000000000000000000000000600052602260045260246000fd5b7f4e487b7100000000000000000000000000000000000000000000000000000000600052604160045260246000fd5b6000601f19601f8301169050919050565b61065a806200037f6000396000f3fe60806040526004361061003f5760003560e01c806319ff1d2114610044578063368b87721461006f5780638da5cb5b1461008b578063e21f37ce146100b6575b600080fd5b34801561005057600080fd5b506100596100e1565b604051610066919061044a565b60405180910390f35b610089600480360381019061008491906103a6565b610173565b005b34801561009757600080fd5b506100a06101e7565b6040516100ad919061042f565b60405180910390f35b3480156100c257600080fd5b506100cb61020d565b6040516100d8919061044a565b60405180910390f35b6060600080546100f090610552565b80601f016020809104026020016040519081016040528092919081815260200182805461011c90610552565b80156101695780601f1061013e57610100808354040283529160200191610169565b820191906000526020600020905b81548152906001019060200180831161014c57829003601f168201915b5050505050905090565b600160009054906101000a900473ffffffffffffffffffffffffffffffffffffffff1673ffffffffffffffffffffffffffffffffffffffff163373ffffffffffffffffffffffffffffffffffffffff16146101cd57600080fd5b80600090805190602001906101e392919061029b565b5050565b600160009054906101000a900473ffffffffffffffffffffffffffffffffffffffff1681565b6000805461021a90610552565b80601f016020809104026020016040519081016040528092919081815260200182805461024690610552565b80156102935780601f1061026857610100808354040283529160200191610293565b820191906000526020600020905b81548152906001019060200180831161027657829003601f168201915b505050505081565b8280546102a790610552565b90600052602060002090601f0160209004810192826102c95760008555610310565b82601f106102e257805160ff1916838001178555610310565b82800160010185558215610310579182015b8281111561030f5782518255916020019190600101906102f4565b5b50905061031d9190610321565b5090565b5b8082111561033a576000816000905550600101610322565b5090565b600061035161034c84610491565b61046c565b90508281526020810184848401111561036957600080fd5b610374848285610510565b509392505050565b600082601f83011261038d57600080fd5b813561039d84826020860161033e565b91505092915050565b6000602082840312156103b857600080fd5b600082013567ffffffffffffffff8111156103d257600080fd5b6103de8482850161037c565b91505092915050565b6103f0816104de565b82525050565b6000610401826104c2565b61040b81856104cd565b935061041b81856020860161051f565b61042481610613565b840191505092915050565b600060208201905061044460008301846103e7565b92915050565b6000602082019050818103600083015261046481846103f6565b905092915050565b6000610476610487565b90506104828282610584565b919050565b6000604051905090565b600067ffffffffffffffff8211156104ac576104ab6105e4565b5b6104b582610613565b9050602081019050919050565b600081519050919050565b600082825260208201905092915050565b60006104e9826104f0565b9050919050565b600073ffffffffffffffffffffffffffffffffffffffff82169050919050565b82818337600083830152505050565b60005b8381101561053d578082015181840152602081019050610522565b8381111561054c576000848401525b50505050565b6000600282049050600182168061056a57607f821691505b6020821081141561057e5761057d6105b5565b5b50919050565b61058d82610613565b810181811067ffffffffffffffff821117156105ac576105ab6105e4565b5b80604052505050565b7f4e487b7100000000000000000000000000000000000000000000000000000000600052602260045260246000fd5b7f4e487b7100000000000000000000000000000000000000000000000000000000600052604160045260246000fd5b6000601f19601f830116905091905056fea26469706673582212200ef7d9c4e5da4a4ac319765cc22f21af5f65a2d6a8f8b314bcea92535cea111c64736f6c63430008040033",
  "immutableReferences": {},
  "source": "pragma solidity 0.8.4;\n\ncontract HelloWorld {\n\n    string public message;\n    address public owner;\n\n    constructor(string memory _message){\n        message = _message;\n        owner = msg.sender;\n    }\n\n    function hello() public view returns(string memory){\n        return message;\n    }\n\n    function setMessage(string memory _message) public payable {\n        require(msg.sender == owner);\n        message = _message;\n    }\n}",
  "sourcePath": "/Users/zhangkuo/IdeaProjects/truffleTest/contracts/Helloworld.sol",
  "compiler": {
    "name": "solc",
    "version": "0.8.4+commit.c7e474f2.Emscripten.clang"
  },
  "schemaVersion": "3.4.7",
  "updatedAt": "2022-05-12T11:41:06.670Z",
  "devdoc": {
    "kind": "dev",
    "methods": {},
    "version": 1
  },
  "userdoc": {
    "kind": "user",
    "methods": {},
    "version": 1
  }
}